{
  "contractName": "IoTSecurity",
  "abi": [
    {
      "constant": true,
      "inputs": [
        {
          "name": "",
          "type": "uint256"
        }
      ],
      "name": "Firmwares",
      "outputs": [
        {
          "name": "swarmAddress",
          "type": "string"
        },
        {
          "name": "SHA256",
          "type": "string"
        }
      ],
      "payable": false,
      "stateMutability": "view",
      "type": "function",
      "signature": "0xd991fabe"
    },
    {
      "inputs": [],
      "payable": false,
      "stateMutability": "nonpayable",
      "type": "constructor",
      "signature": "constructor"
    },
    {
      "anonymous": false,
      "inputs": [
        {
          "indexed": false,
          "name": "id",
          "type": "uint256"
        },
        {
          "indexed": false,
          "name": "swarmAddress",
          "type": "string"
        },
        {
          "indexed": false,
          "name": "SHA256",
          "type": "string"
        }
      ],
      "name": "uploadEvent",
      "type": "event",
      "signature": "0x2d65448b3dc663d4c689e13d432eec7018b5a337e8fabd53f650e2c03d684fd8"
    },
    {
      "constant": false,
      "inputs": [
        {
          "name": "swarmAddress",
          "type": "string"
        },
        {
          "name": "SHA256",
          "type": "string"
        }
      ],
      "name": "uploadFirmware",
      "outputs": [
        {
          "name": "id",
          "type": "uint256"
        }
      ],
      "payable": false,
      "stateMutability": "nonpayable",
      "type": "function",
      "signature": "0xb897214e"
    }
  ],
  "bytecode": "0x608060405234801561001057600080fd5b506000808190555033600260006101000a81548173ffffffffffffffffffffffffffffffffffffffff021916908373ffffffffffffffffffffffffffffffffffffffff1602179055506106f5806100686000396000f3fe60806040526004361061004c576000357c0100000000000000000000000000000000000000000000000000000000900463ffffffff168063b897214e14610051578063d991fabe146101c4575b600080fd5b34801561005d57600080fd5b506101ae6004803603604081101561007457600080fd5b810190808035906020019064010000000081111561009157600080fd5b8201836020820111156100a357600080fd5b803590602001918460018302840111640100000000831117156100c557600080fd5b91908080601f016020809104026020016040519081016040528093929190818152602001838380828437600081840152601f19601f8201169050808301925050505050505091929192908035906020019064010000000081111561012857600080fd5b82018360208201111561013a57600080fd5b8035906020019184600183028401116401000000008311171561015c57600080fd5b91908080601f016020809104026020016040519081016040528093929190818152602001838380828437600081840152601f19601f8201169050808301925050505050505091929192905050506102e4565b6040518082815260200191505060405180910390f35b3480156101d057600080fd5b506101fd600480360360208110156101e757600080fd5b81019080803590602001909291905050506104d0565b604051808060200180602001838103835285818151815260200191508051906020019080838360005b83811015610241578082015181840152602081019050610226565b50505050905090810190601f16801561026e5780820380516001836020036101000a031916815260200191505b50838103825284818151815260200191508051906020019080838360005b838110156102a757808201518184015260208101905061028c565b50505050905090810190601f1680156102d45780820380516001836020036101000a031916815260200191505b5094505050505060405180910390f35b6000600260009054906101000a900473ffffffffffffffffffffffffffffffffffffffff1673ffffffffffffffffffffffffffffffffffffffff163373ffffffffffffffffffffffffffffffffffffffff1614151561034257600080fd5b60008081546001019190508190559050604080519081016040528084815260200183815250600160008381526020019081526020016000206000820151816000019080519060200190610396929190610624565b5060208201518160010190805190602001906103b3929190610624565b509050507f2d65448b3dc663d4c689e13d432eec7018b5a337e8fabd53f650e2c03d684fd86000548484604051808481526020018060200180602001838103835285818151815260200191508051906020019080838360005b8381101561042757808201518184015260208101905061040c565b50505050905090810190601f1680156104545780820380516001836020036101000a031916815260200191505b50838103825284818151815260200191508051906020019080838360005b8381101561048d578082015181840152602081019050610472565b50505050905090810190601f1680156104ba5780820380516001836020036101000a031916815260200191505b509550505050505060405180910390a192915050565b6001602052806000526040600020600091509050806000018054600181600116156101000203166002900480601f01602080910402602001604051908101604052809291908181526020018280546001816001161561010002031660029004801561057c5780601f106105515761010080835404028352916020019161057c565b820191906000526020600020905b81548152906001019060200180831161055f57829003601f168201915b505050505090806001018054600181600116156101000203166002900480601f01602080910402602001604051908101604052809291908181526020018280546001816001161561010002031660029004801561061a5780601f106105ef5761010080835404028352916020019161061a565b820191906000526020600020905b8154815290600101906020018083116105fd57829003601f168201915b5050505050905082565b828054600181600116156101000203166002900490600052602060002090601f016020900481019282601f1061066557805160ff1916838001178555610693565b82800160010185558215610693579182015b82811115610692578251825591602001919060010190610677565b5b5090506106a091906106a4565b5090565b6106c691905b808211156106c25760008160009055506001016106aa565b5090565b9056fea165627a7a723058200b694fa2130380f7dea3d100455bc1a1f79ee0ac44962feb6d48fc86dfeb48670029",
  "source": "//pragma solidity ^0.4.11;\r\npragma solidity >=0.4.21 <0.6.0;\r\n\r\n\r\ncontract IoTSecurity {\r\n    struct Firmware {\r\n    string swarmAddress;\r\n    string SHA256;\r\n    }\r\n\r\n    uint numOfFirmware;\r\n\r\n    mapping (uint => Firmware) public Firmwares;\r\n\r\n    event uploadEvent(uint id, string swarmAddress, string SHA256);\r\n\r\n    address owner;\r\n\r\n    //function IoTSecurity() public {\r\n    constructor() public {\r\n        numOfFirmware = 0;\r\n        owner = msg.sender;\r\n    }\r\n\r\n    modifier onlyOwner {\r\n        require(msg.sender == owner);\r\n        _;\r\n    }\r\n\r\n    function uploadFirmware(string memory swarmAddress, string memory SHA256) onlyOwner public returns (uint id){\r\n        id = ++numOfFirmware;\r\n        Firmwares[id] = Firmware(swarmAddress, SHA256);\r\n        emit uploadEvent(numOfFirmware, swarmAddress, SHA256);\r\n    }\r\n\r\n}\r\n",
  "sourcePath": "/Users/hujw/Desktop/IOT/server/deploy_sc/contracts/IoTSecurity.sol",
  "compiler": {
    "name": "solc",
    "version": "0.5.0+commit.1d4f565a.Emscripten.clang"
  },
  "schemaVersion": "3.0.5",
  "updatedAt": "2019-03-28T13:33:05.639Z",
  "devdoc": {
    "methods": {}
  },
  "userdoc": {
    "methods": {}
  }
}